{
  "_format": "hh-sol-artifact-1",
  "contractName": "CompanyCertificate",
  "sourceName": "contracts/CompanyCertificate.sol",
  "abi": [
    {
      "inputs": [
        {
          "internalType": "string",
          "name": "_name",
          "type": "string"
        },
        {
          "internalType": "string",
          "name": "_symbol",
          "type": "string"
        },
        {
          "internalType": "address",
          "name": "_owner",
          "type": "address"
        }
      ],
      "stateMutability": "nonpayable",
      "type": "constructor"
    },
    {
      "anonymous": false,
      "inputs": [
        {
          "indexed": true,
          "internalType": "address",
          "name": "owner",
          "type": "address"
        },
        {
          "indexed": true,
          "internalType": "address",
          "name": "approved",
          "type": "address"
        },
        {
          "indexed": true,
          "internalType": "uint256",
          "name": "tokenId",
          "type": "uint256"
        }
      ],
      "name": "Approval",
      "type": "event"
    },
    {
      "anonymous": false,
      "inputs": [
        {
          "indexed": true,
          "internalType": "address",
          "name": "owner",
          "type": "address"
        },
        {
          "indexed": true,
          "internalType": "address",
          "name": "operator",
          "type": "address"
        },
        {
          "indexed": false,
          "internalType": "bool",
          "name": "approved",
          "type": "bool"
        }
      ],
      "name": "ApprovalForAll",
      "type": "event"
    },
    {
      "anonymous": false,
      "inputs": [
        {
          "indexed": false,
          "internalType": "uint256",
          "name": "_fromTokenId",
          "type": "uint256"
        },
        {
          "indexed": false,
          "internalType": "uint256",
          "name": "_toTokenId",
          "type": "uint256"
        }
      ],
      "name": "BatchMetadataUpdate",
      "type": "event"
    },
    {
      "anonymous": false,
      "inputs": [
        {
          "indexed": true,
          "internalType": "uint256",
          "name": "tokenId",
          "type": "uint256"
        },
        {
          "indexed": true,
          "internalType": "address",
          "name": "recipient",
          "type": "address"
        },
        {
          "indexed": false,
          "internalType": "string",
          "name": "recipientName",
          "type": "string"
        },
        {
          "indexed": false,
          "internalType": "string",
          "name": "courseName",
          "type": "string"
        },
        {
          "indexed": false,
          "internalType": "string",
          "name": "ipfsHash",
          "type": "string"
        },
        {
          "indexed": false,
          "internalType": "bool",
          "name": "isPublic",
          "type": "bool"
        },
        {
          "indexed": false,
          "internalType": "bool",
          "name": "isSoulbound",
          "type": "bool"
        }
      ],
      "name": "CertificateIssued",
      "type": "event"
    },
    {
      "anonymous": false,
      "inputs": [
        {
          "indexed": true,
          "internalType": "uint256",
          "name": "tokenId",
          "type": "uint256"
        },
        {
          "indexed": false,
          "internalType": "bool",
          "name": "isPublic",
          "type": "bool"
        }
      ],
      "name": "CertificateVisibilityChanged",
      "type": "event"
    },
    {
      "anonymous": false,
      "inputs": [
        {
          "indexed": false,
          "internalType": "uint256",
          "name": "_tokenId",
          "type": "uint256"
        }
      ],
      "name": "MetadataUpdate",
      "type": "event"
    },
    {
      "anonymous": false,
      "inputs": [
        {
          "indexed": true,
          "internalType": "address",
          "name": "previousOwner",
          "type": "address"
        },
        {
          "indexed": true,
          "internalType": "address",
          "name": "newOwner",
          "type": "address"
        }
      ],
      "name": "OwnershipTransferred",
      "type": "event"
    },
    {
      "anonymous": false,
      "inputs": [
        {
          "indexed": true,
          "internalType": "address",
          "name": "from",
          "type": "address"
        },
        {
          "indexed": true,
          "internalType": "address",
          "name": "to",
          "type": "address"
        },
        {
          "indexed": true,
          "internalType": "uint256",
          "name": "tokenId",
          "type": "uint256"
        }
      ],
      "name": "Transfer",
      "type": "event"
    },
    {
      "inputs": [
        {
          "internalType": "address",
          "name": "to",
          "type": "address"
        },
        {
          "internalType": "uint256",
          "name": "tokenId",
          "type": "uint256"
        }
      ],
      "name": "approve",
      "outputs": [],
      "stateMutability": "nonpayable",
      "type": "function"
    },
    {
      "inputs": [
        {
          "internalType": "address",
          "name": "owner",
          "type": "address"
        }
      ],
      "name": "balanceOf",
      "outputs": [
        {
          "internalType": "uint256",
          "name": "",
          "type": "uint256"
        }
      ],
      "stateMutability": "view",
      "type": "function"
    },
    {
      "inputs": [
        {
          "internalType": "uint256",
          "name": "",
          "type": "uint256"
        }
      ],
      "name": "certificates",
      "outputs": [
        {
          "internalType": "uint256",
          "name": "tokenId",
          "type": "uint256"
        },
        {
          "internalType": "address",
          "name": "recipient",
          "type": "address"
        },
        {
          "internalType": "string",
          "name": "recipientName",
          "type": "string"
        },
        {
          "internalType": "string",
          "name": "courseName",
          "type": "string"
        },
        {
          "internalType": "string",
          "name": "ipfsHash",
          "type": "string"
        },
        {
          "internalType": "uint256",
          "name": "issueDate",
          "type": "uint256"
        },
        {
          "internalType": "bool",
          "name": "isPublic",
          "type": "bool"
        },
        {
          "internalType": "bool",
          "name": "isSoulbound",
          "type": "bool"
        }
      ],
      "stateMutability": "view",
      "type": "function"
    },
    {
      "inputs": [
        {
          "internalType": "uint256",
          "name": "tokenId",
          "type": "uint256"
        }
      ],
      "name": "getApproved",
      "outputs": [
        {
          "internalType": "address",
          "name": "",
          "type": "address"
        }
      ],
      "stateMutability": "view",
      "type": "function"
    },
    {
      "inputs": [
        {
          "internalType": "uint256",
          "name": "_tokenId",
          "type": "uint256"
        }
      ],
      "name": "getCertificate",
      "outputs": [
        {
          "components": [
            {
              "internalType": "uint256",
              "name": "tokenId",
              "type": "uint256"
            },
            {
              "internalType": "address",
              "name": "recipient",
              "type": "address"
            },
            {
              "internalType": "string",
              "name": "recipientName",
              "type": "string"
            },
            {
              "internalType": "string",
              "name": "courseName",
              "type": "string"
            },
            {
              "internalType": "string",
              "name": "ipfsHash",
              "type": "string"
            },
            {
              "internalType": "uint256",
              "name": "issueDate",
              "type": "uint256"
            },
            {
              "internalType": "bool",
              "name": "isPublic",
              "type": "bool"
            },
            {
              "internalType": "bool",
              "name": "isSoulbound",
              "type": "bool"
            }
          ],
          "internalType": "struct CompanyCertificate.Certificate",
          "name": "",
          "type": "tuple"
        }
      ],
      "stateMutability": "view",
      "type": "function"
    },
    {
      "inputs": [],
      "name": "getPublicCertificates",
      "outputs": [
        {
          "internalType": "uint256[]",
          "name": "",
          "type": "uint256[]"
        }
      ],
      "stateMutability": "view",
      "type": "function"
    },
    {
      "inputs": [
        {
          "internalType": "address",
          "name": "_recipient",
          "type": "address"
        }
      ],
      "name": "getRecipientCertificates",
      "outputs": [
        {
          "internalType": "uint256[]",
          "name": "",
          "type": "uint256[]"
        }
      ],
      "stateMutability": "view",
      "type": "function"
    },
    {
      "inputs": [
        {
          "internalType": "address",
          "name": "owner",
          "type": "address"
        },
        {
          "internalType": "address",
          "name": "operator",
          "type": "address"
        }
      ],
      "name": "isApprovedForAll",
      "outputs": [
        {
          "internalType": "bool",
          "name": "",
          "type": "bool"
        }
      ],
      "stateMutability": "view",
      "type": "function"
    },
    {
      "inputs": [
        {
          "internalType": "address",
          "name": "_recipient",
          "type": "address"
        },
        {
          "internalType": "string",
          "name": "_recipientName",
          "type": "string"
        },
        {
          "internalType": "string",
          "name": "_courseName",
          "type": "string"
        },
        {
          "internalType": "string",
          "name": "_ipfsHash",
          "type": "string"
        },
        {
          "internalType": "bool",
          "name": "_isPublic",
          "type": "bool"
        },
        {
          "internalType": "bool",
          "name": "_isSoulbound",
          "type": "bool"
        }
      ],
      "name": "issueCertificate",
      "outputs": [
        {
          "internalType": "uint256",
          "name": "",
          "type": "uint256"
        }
      ],
      "stateMutability": "nonpayable",
      "type": "function"
    },
    {
      "inputs": [],
      "name": "name",
      "outputs": [
        {
          "internalType": "string",
          "name": "",
          "type": "string"
        }
      ],
      "stateMutability": "view",
      "type": "function"
    },
    {
      "inputs": [],
      "name": "owner",
      "outputs": [
        {
          "internalType": "address",
          "name": "",
          "type": "address"
        }
      ],
      "stateMutability": "view",
      "type": "function"
    },
    {
      "inputs": [
        {
          "internalType": "uint256",
          "name": "tokenId",
          "type": "uint256"
        }
      ],
      "name": "ownerOf",
      "outputs": [
        {
          "internalType": "address",
          "name": "",
          "type": "address"
        }
      ],
      "stateMutability": "view",
      "type": "function"
    },
    {
      "inputs": [
        {
          "internalType": "uint256",
          "name": "",
          "type": "uint256"
        }
      ],
      "name": "publicCertificates",
      "outputs": [
        {
          "internalType": "uint256",
          "name": "",
          "type": "uint256"
        }
      ],
      "stateMutability": "view",
      "type": "function"
    },
    {
      "inputs": [
        {
          "internalType": "address",
          "name": "",
          "type": "address"
        },
        {
          "internalType": "uint256",
          "name": "",
          "type": "uint256"
        }
      ],
      "name": "recipientCertificates",
      "outputs": [
        {
          "internalType": "uint256",
          "name": "",
          "type": "uint256"
        }
      ],
      "stateMutability": "view",
      "type": "function"
    },
    {
      "inputs": [],
      "name": "renounceOwnership",
      "outputs": [],
      "stateMutability": "nonpayable",
      "type": "function"
    },
    {
      "inputs": [
        {
          "internalType": "address",
          "name": "from",
          "type": "address"
        },
        {
          "internalType": "address",
          "name": "to",
          "type": "address"
        },
        {
          "internalType": "uint256",
          "name": "tokenId",
          "type": "uint256"
        }
      ],
      "name": "safeTransferFrom",
      "outputs": [],
      "stateMutability": "nonpayable",
      "type": "function"
    },
    {
      "inputs": [
        {
          "internalType": "address",
          "name": "from",
          "type": "address"
        },
        {
          "internalType": "address",
          "name": "to",
          "type": "address"
        },
        {
          "internalType": "uint256",
          "name": "tokenId",
          "type": "uint256"
        },
        {
          "internalType": "bytes",
          "name": "data",
          "type": "bytes"
        }
      ],
      "name": "safeTransferFrom",
      "outputs": [],
      "stateMutability": "nonpayable",
      "type": "function"
    },
    {
      "inputs": [
        {
          "internalType": "address",
          "name": "operator",
          "type": "address"
        },
        {
          "internalType": "bool",
          "name": "approved",
          "type": "bool"
        }
      ],
      "name": "setApprovalForAll",
      "outputs": [],
      "stateMutability": "nonpayable",
      "type": "function"
    },
    {
      "inputs": [
        {
          "internalType": "bytes4",
          "name": "interfaceId",
          "type": "bytes4"
        }
      ],
      "name": "supportsInterface",
      "outputs": [
        {
          "internalType": "bool",
          "name": "",
          "type": "bool"
        }
      ],
      "stateMutability": "view",
      "type": "function"
    },
    {
      "inputs": [],
      "name": "symbol",
      "outputs": [
        {
          "internalType": "string",
          "name": "",
          "type": "string"
        }
      ],
      "stateMutability": "view",
      "type": "function"
    },
    {
      "inputs": [
        {
          "internalType": "uint256",
          "name": "_tokenId",
          "type": "uint256"
        }
      ],
      "name": "toggleCertificateVisibility",
      "outputs": [],
      "stateMutability": "nonpayable",
      "type": "function"
    },
    {
      "inputs": [
        {
          "internalType": "uint256",
          "name": "tokenId",
          "type": "uint256"
        }
      ],
      "name": "tokenURI",
      "outputs": [
        {
          "internalType": "string",
          "name": "",
          "type": "string"
        }
      ],
      "stateMutability": "view",
      "type": "function"
    },
    {
      "inputs": [],
      "name": "totalSupply",
      "outputs": [
        {
          "internalType": "uint256",
          "name": "",
          "type": "uint256"
        }
      ],
      "stateMutability": "view",
      "type": "function"
    },
    {
      "inputs": [
        {
          "internalType": "address",
          "name": "from",
          "type": "address"
        },
        {
          "internalType": "address",
          "name": "to",
          "type": "address"
        },
        {
          "internalType": "uint256",
          "name": "tokenId",
          "type": "uint256"
        }
      ],
      "name": "transferFrom",
      "outputs": [],
      "stateMutability": "nonpayable",
      "type": "function"
    },
    {
      "inputs": [
        {
          "internalType": "address",
          "name": "newOwner",
          "type": "address"
        }
      ],
      "name": "transferOwnership",
      "outputs": [],
      "stateMutability": "nonpayable",
      "type": "function"
    },
    {
      "inputs": [
        {
          "internalType": "string",
          "name": "",
          "type": "string"
        }
      ],
      "name": "usedHashes",
      "outputs": [
        {
          "internalType": "bool",
          "name": "",
          "type": "bool"
        }
      ],
      "stateMutability": "view",
      "type": "function"
    }
  ],
  "bytecode": "0x60806040523480156200001157600080fd5b5060405162002ccf38038062002ccf83398101604081905262000034916200019f565b82826000620000448382620002bb565b506001620000538282620002bb565b505050620000706200006a6200008460201b60201c565b62000088565b6200007b8162000088565b50505062000387565b3390565b600780546001600160a01b038381166001600160a01b0319831681179093556040519116919082907f8be0079c531659141344cd1fd0a4f28419497f9722a3daafe3b4186f6b6457e090600090a35050565b634e487b7160e01b600052604160045260246000fd5b600082601f8301126200010257600080fd5b81516001600160401b03808211156200011f576200011f620000da565b604051601f8301601f19908116603f011681019082821181831017156200014a576200014a620000da565b816040528381526020925086838588010111156200016757600080fd5b600091505b838210156200018b57858201830151818301840152908201906200016c565b600093810190920192909252949350505050565b600080600060608486031215620001b557600080fd5b83516001600160401b0380821115620001cd57600080fd5b620001db87838801620000f0565b94506020860151915080821115620001f257600080fd5b506200020186828701620000f0565b604086015190935090506001600160a01b03811681146200022157600080fd5b809150509250925092565b600181811c908216806200024157607f821691505b6020821081036200026257634e487b7160e01b600052602260045260246000fd5b50919050565b601f821115620002b657600081815260208120601f850160051c81016020861015620002915750805b601f850160051c820191505b81811015620002b2578281556001016200029d565b5050505b505050565b81516001600160401b03811115620002d757620002d7620000da565b620002ef81620002e884546200022c565b8462000268565b602080601f8311600181146200032757600084156200030e5750858301515b600019600386901b1c1916600185901b178555620002b2565b600085815260208120601f198616915b82811015620003585788860151825594840194600190910190840162000337565b5085821015620003775787850151600019600388901b60f8161c191681555b5050505050600190811b01905550565b61293880620003976000396000f3fe608060405234801561001057600080fd5b506004361061018e5760003560e01c8063715018a6116100de578063b88d4fde11610097578063ccffa6e211610071578063ccffa6e21461038f578063d3bc05c4146103a2578063e985e9c5146103b5578063f2fde38b146103c857600080fd5b8063b88d4fde1461033b578063bd1f5f311461034e578063c87b56dd1461037c57600080fd5b8063715018a6146102e157806373ae3899146102e95780638da5cb5b146102fc57806395d89b411461030d578063a22cb46514610315578063b77160071461032857600080fd5b806323b872dd1161014b5780635c3f4968116101255780635c3f4968146102815780636352211e14610294578063663b3e22146102a757806370a08231146102ce57600080fd5b806323b872dd1461023b57806342842e0e1461024e57806351640fee1461026157600080fd5b806301ffc9a71461019357806306fdde03146101bb578063081812fc146101d057806308bfc270146101fb578063095ea7b31461021057806318160ddd14610225575b600080fd5b6101a66101a1366004612046565b6103db565b60405190151581526020015b60405180910390f35b6101c36103ec565b6040516101b291906120b3565b6101e36101de3660046120c6565b61047e565b6040516001600160a01b0390911681526020016101b2565b6102036104a5565b6040516101b291906120df565b61022361021e36600461213f565b6104fc565b005b61022d610581565b6040519081526020016101b2565b610223610249366004612169565b610591565b61022361025c366004612169565b6105c7565b61027461026f3660046120c6565b6105e2565b6040516101b291906121a5565b61022d61028f3660046120c6565b6108ad565b6101e36102a23660046120c6565b6108ce565b6102ba6102b53660046120c6565b61092e565b6040516101b298979695949392919061225c565b61022d6102dc3660046122d2565b610b18565b610223610b9e565b61022d6102f736600461213f565b610bb2565b6007546001600160a01b03166101e3565b6101c3610be3565b6102236103233660046122fd565b610bf2565b6102036103363660046122d2565b610bfc565b6102236103493660046123bc565b610c68565b6101a661035c366004612458565b8051602081830181018051600b8252928201919093012091525460ff1681565b6101c361038a3660046120c6565b610ca0565b61022361039d3660046120c6565b610cab565b61022d6103b036600461248d565b610ede565b6101a66103c3366004612546565b611296565b6102236103d63660046122d2565b6112c4565b60006103e68261133d565b92915050565b6060600080546103fb90612570565b80601f016020809104026020016040519081016040528092919081815260200182805461042790612570565b80156104745780601f1061044957610100808354040283529160200191610474565b820191906000526020600020905b81548152906001019060200180831161045757829003601f168201915b5050505050905090565b600061048982611362565b506000908152600460205260409020546001600160a01b031690565b6060600c80548060200260200160405190810160405280929190818152602001828054801561047457602002820191906000526020600020905b8154815260200190600101908083116104df575050505050905090565b600081815260096020526040902060060154610100900460ff16156105735760405162461bcd60e51b815260206004820152602260248201527f536f756c626f756e6420746f6b656e2063616e6e6f7420626520617070726f76604482015261195960f21b60648201526084015b60405180910390fd5b61057d82826113b2565b5050565b600061058c60085490565b905090565b61059b33826114c2565b6105b75760405162461bcd60e51b815260040161056a906125aa565b6105c2838383611521565b505050565b6105c283838360405180602001604052806000815250610c68565b6106376040518061010001604052806000815260200160006001600160a01b03168152602001606081526020016060815260200160608152602001600081526020016000151581526020016000151581525090565b61064082611692565b61068c5760405162461bcd60e51b815260206004820152601a60248201527f436572746966696361746520646f6573206e6f74206578697374000000000000604482015260640161056a565b6000828152600960209081526040918290208251610100810184528154815260018201546001600160a01b03169281019290925260028101805492939192918401916106d790612570565b80601f016020809104026020016040519081016040528092919081815260200182805461070390612570565b80156107505780601f1061072557610100808354040283529160200191610750565b820191906000526020600020905b81548152906001019060200180831161073357829003601f168201915b5050505050815260200160038201805461076990612570565b80601f016020809104026020016040519081016040528092919081815260200182805461079590612570565b80156107e25780601f106107b7576101008083540402835291602001916107e2565b820191906000526020600020905b8154815290600101906020018083116107c557829003601f168201915b505050505081526020016004820180546107fb90612570565b80601f016020809104026020016040519081016040528092919081815260200182805461082790612570565b80156108745780601f1061084957610100808354040283529160200191610874565b820191906000526020600020905b81548152906001019060200180831161085757829003601f168201915b50505091835250506005820154602082015260069091015460ff8082161515604084015261010090910416151560609091015292915050565b600c81815481106108bd57600080fd5b600091825260209091200154905081565b6000818152600260205260408120546001600160a01b0316806103e65760405162461bcd60e51b8152602060048201526018602482015277115490cdcc8c4e881a5b9d985b1a59081d1bdad95b88125160421b604482015260640161056a565b60096020526000908152604090208054600182015460028301805492936001600160a01b039092169261096090612570565b80601f016020809104026020016040519081016040528092919081815260200182805461098c90612570565b80156109d95780601f106109ae576101008083540402835291602001916109d9565b820191906000526020600020905b8154815290600101906020018083116109bc57829003601f168201915b5050505050908060030180546109ee90612570565b80601f0160208091040260200160405190810160405280929190818152602001828054610a1a90612570565b8015610a675780601f10610a3c57610100808354040283529160200191610a67565b820191906000526020600020905b815481529060010190602001808311610a4a57829003601f168201915b505050505090806004018054610a7c90612570565b80601f0160208091040260200160405190810160405280929190818152602001828054610aa890612570565b8015610af55780601f10610aca57610100808354040283529160200191610af5565b820191906000526020600020905b815481529060010190602001808311610ad857829003601f168201915b50505050600583015460069093015491929160ff80821692506101009091041688565b60006001600160a01b038216610b825760405162461bcd60e51b815260206004820152602960248201527f4552433732313a2061646472657373207a65726f206973206e6f7420612076616044820152683634b21037bbb732b960b91b606482015260840161056a565b506001600160a01b031660009081526003602052604090205490565b610ba66116af565b610bb06000611709565b565b600a6020528160005260406000208181548110610bce57600080fd5b90600052602060002001600091509150505481565b6060600180546103fb90612570565b61057d828261175b565b6001600160a01b0381166000908152600a6020908152604091829020805483518184028101840190945280845260609392830182828015610c5c57602002820191906000526020600020905b815481526020019060010190808311610c48575b50505050509050919050565b610c7233836114c2565b610c8e5760405162461bcd60e51b815260040161056a906125aa565b610c9a84848484611766565b50505050565b60606103e682611799565b610cb481611692565b610d005760405162461bcd60e51b815260206004820152601a60248201527f436572746966696361746520646f6573206e6f74206578697374000000000000604482015260640161056a565b33610d0a826108ce565b6001600160a01b03161480610d38575033610d2d6007546001600160a01b031690565b6001600160a01b0316145b610d755760405162461bcd60e51b815260206004820152600e60248201526d139bdd08185d5d1a1bdc9a5e995960921b604482015260640161056a565b600081815260096020526040902060068101805460ff19811660ff918216159081179092551615610dda57600c80546001810182556000919091527fdf6966c971051c3d54ec59162606531493a51404a002842f56009d7e5cf4a8c701829055610e95565b60005b600c54811015610e935782600c8281548110610dfb57610dfb6125f7565b906000526020600020015403610e8157600c8054610e1b90600190612623565b81548110610e2b57610e2b6125f7565b9060005260206000200154600c8281548110610e4957610e496125f7565b600091825260209091200155600c805480610e6657610e66612636565b60019003818190600052602060002001600090559055610e93565b80610e8b8161264c565b915050610ddd565b505b600681015460405183917fcb72d2c4b9b32b131af0ab97b3450b88c177ebcde4601499117ecaa4ab09cbd991610ed29160ff161515815260200190565b60405180910390a25050565b6000610ee86116af565b6001600160a01b038716610f3e5760405162461bcd60e51b815260206004820152601960248201527f496e76616c696420726563697069656e74206164647265737300000000000000604482015260640161056a565b6000865111610f8f5760405162461bcd60e51b815260206004820152601760248201527f526563697069656e74206e616d65207265717569726564000000000000000000604482015260640161056a565b6000855111610fd75760405162461bcd60e51b815260206004820152601460248201527310dbdd5c9cd9481b985b59481c995c5d5a5c995960621b604482015260640161056a565b600084511161101d5760405162461bcd60e51b815260206004820152601260248201527112541194c81a185cda081c995c5d5a5c995960721b604482015260640161056a565b600b8460405161102d9190612665565b9081526040519081900360200190205460ff16156110865760405162461bcd60e51b815260206004820152601660248201527512541194c81a185cda08185b1c9958591e481d5cd95960521b604482015260640161056a565b600061109160085490565b90506110a1600880546001019055565b6110ab88826118a1565b6110b581866118bb565b60408051610100810182528281526001600160a01b038a811660208084019182528385018c8152606085018c9052608085018b90524260a086015289151560c086015288151560e0860152600087815260099092529490208351815590516001820180546001600160a01b03191691909316179091559151909190600282019061113f90826126cf565b506060820151600382019061115490826126cf565b506080820151600482019061116990826126cf565b5060a0820151600582015560c08201516006909101805460e09093015115156101000261ff00199215159290921661ffff19909316929092171790556001600160a01b0388166000908152600a602090815260408083208054600181810183559185529290932090910183905551600b906111e5908890612665565b908152604051908190036020019020805491151560ff19909216919091179055831561124157600c80546001810182556000919091527fdf6966c971051c3d54ec59162606531493a51404a002842f56009d7e5cf4a8c7018190555b876001600160a01b0316817fbf581e75b588c1163667882e83e2fef86027f960bc65ce4a0ee0aca6c2a799fc898989898960405161128395949392919061278f565b60405180910390a3979650505050505050565b6001600160a01b03918216600090815260056020908152604080832093909416825291909152205460ff1690565b6112cc6116af565b6001600160a01b0381166113315760405162461bcd60e51b815260206004820152602660248201527f4f776e61626c653a206e6577206f776e657220697320746865207a65726f206160448201526564647265737360d01b606482015260840161056a565b61133a81611709565b50565b60006001600160e01b03198216632483248360e11b14806103e657506103e682611977565b61136b81611692565b61133a5760405162461bcd60e51b8152602060048201526018602482015277115490cdcc8c4e881a5b9d985b1a59081d1bdad95b88125160421b604482015260640161056a565b60006113bd826108ce565b9050806001600160a01b0316836001600160a01b03160361142a5760405162461bcd60e51b815260206004820152602160248201527f4552433732313a20617070726f76616c20746f2063757272656e74206f776e656044820152603960f91b606482015260840161056a565b336001600160a01b038216148061144657506114468133611296565b6114b85760405162461bcd60e51b815260206004820152603d60248201527f4552433732313a20617070726f76652063616c6c6572206973206e6f7420746f60448201527f6b656e206f776e6572206f7220617070726f76656420666f7220616c6c000000606482015260840161056a565b6105c283836119c7565b6000806114ce836108ce565b9050806001600160a01b0316846001600160a01b031614806114f557506114f58185611296565b806115195750836001600160a01b031661150e8461047e565b6001600160a01b0316145b949350505050565b826001600160a01b0316611534826108ce565b6001600160a01b03161461155a5760405162461bcd60e51b815260040161056a906127e2565b6001600160a01b0382166115bc5760405162461bcd60e51b8152602060048201526024808201527f4552433732313a207472616e7366657220746f20746865207a65726f206164646044820152637265737360e01b606482015260840161056a565b6115c98383836001611a35565b826001600160a01b03166115dc826108ce565b6001600160a01b0316146116025760405162461bcd60e51b815260040161056a906127e2565b600081815260046020908152604080832080546001600160a01b03199081169091556001600160a01b0387811680865260038552838620805460001901905590871680865283862080546001019055868652600290945282852080549092168417909155905184937fddf252ad1be2c89b69c2b068fc378daa952ba7f163c4a11628f55a4df523b3ef91a4505050565b6000908152600260205260409020546001600160a01b0316151590565b6007546001600160a01b03163314610bb05760405162461bcd60e51b815260206004820181905260248201527f4f776e61626c653a2063616c6c6572206973206e6f7420746865206f776e6572604482015260640161056a565b600780546001600160a01b038381166001600160a01b0319831681179093556040519116919082907f8be0079c531659141344cd1fd0a4f28419497f9722a3daafe3b4186f6b6457e090600090a35050565b61057d338383611ad4565b611771848484611521565b61177d84848484611ba2565b610c9a5760405162461bcd60e51b815260040161056a90612827565b60606117a482611362565b600082815260066020526040812080546117bd90612570565b80601f01602080910402602001604051908101604052809291908181526020018280546117e990612570565b80156118365780601f1061180b57610100808354040283529160200191611836565b820191906000526020600020905b81548152906001019060200180831161181957829003601f168201915b50505050509050600061185460408051602081019091526000815290565b90508051600003611866575092915050565b815115611898578082604051602001611880929190612879565b60405160208183030381529060405292505050919050565b61151984611ca3565b61057d828260405180602001604052806000815250611d17565b6118c482611692565b6119275760405162461bcd60e51b815260206004820152602e60248201527f45524337323155524953746f726167653a2055524920736574206f66206e6f6e60448201526d32bc34b9ba32b73a103a37b5b2b760911b606482015260840161056a565b600082815260066020526040902061193f82826126cf565b506040518281527ff8e1a15aba9398e019f0b49df1a4fde98ee17ae345cb5f6b5e2c27f5033e8ce79060200160405180910390a15050565b60006001600160e01b031982166380ac58cd60e01b14806119a857506001600160e01b03198216635b5e139f60e01b145b806103e657506301ffc9a760e01b6001600160e01b03198316146103e6565b600081815260046020526040902080546001600160a01b0319166001600160a01b03841690811790915581906119fc826108ce565b6001600160a01b03167f8c5be1e5ebec7d5bd14f71427d1e84f3dd0314c0f7b2291e5b200ac8c7c3b92560405160405180910390a45050565b6001600160a01b03841615801590611a5557506001600160a01b03831615155b15611acf57600082815260096020526040902060060154610100900460ff1615611acf5760405162461bcd60e51b815260206004820152602560248201527f536f756c626f756e6420746f6b656e2063616e6e6f74206265207472616e7366604482015264195c9c995960da1b606482015260840161056a565b610c9a565b816001600160a01b0316836001600160a01b031603611b355760405162461bcd60e51b815260206004820152601960248201527f4552433732313a20617070726f766520746f2063616c6c657200000000000000604482015260640161056a565b6001600160a01b03838116600081815260056020908152604080832094871680845294825291829020805460ff191686151590811790915591519182527f17307eab39ab6107e8899845ad3d59bd9653f200f220920489ca2b5937696c31910160405180910390a3505050565b60006001600160a01b0384163b15611c9857604051630a85bd0160e11b81526001600160a01b0385169063150b7a0290611be69033908990889088906004016128a8565b6020604051808303816000875af1925050508015611c21575060408051601f3d908101601f19168201909252611c1e918101906128e5565b60015b611c7e573d808015611c4f576040519150601f19603f3d011682016040523d82523d6000602084013e611c54565b606091505b508051600003611c765760405162461bcd60e51b815260040161056a90612827565b805181602001fd5b6001600160e01b031916630a85bd0160e11b149050611519565b506001949350505050565b6060611cae82611362565b6000611cc560408051602081019091526000815290565b90506000815111611ce55760405180602001604052806000815250611d10565b80611cef84611d4a565b604051602001611d00929190612879565b6040516020818303038152906040525b9392505050565b611d218383611ddd565b611d2e6000848484611ba2565b6105c25760405162461bcd60e51b815260040161056a90612827565b60606000611d5783611f58565b600101905060008167ffffffffffffffff811115611d7757611d77612330565b6040519080825280601f01601f191660200182016040528015611da1576020820181803683370190505b5090508181016020015b600019016f181899199a1a9b1b9c1cb0b131b232b360811b600a86061a8153600a8504945084611dab57509392505050565b6001600160a01b038216611e335760405162461bcd60e51b815260206004820181905260248201527f4552433732313a206d696e7420746f20746865207a65726f2061646472657373604482015260640161056a565b611e3c81611692565b15611e895760405162461bcd60e51b815260206004820152601c60248201527f4552433732313a20746f6b656e20616c7265616479206d696e74656400000000604482015260640161056a565b611e97600083836001611a35565b611ea081611692565b15611eed5760405162461bcd60e51b815260206004820152601c60248201527f4552433732313a20746f6b656e20616c7265616479206d696e74656400000000604482015260640161056a565b6001600160a01b038216600081815260036020908152604080832080546001019055848352600290915280822080546001600160a01b0319168417905551839291907fddf252ad1be2c89b69c2b068fc378daa952ba7f163c4a11628f55a4df523b3ef908290a45050565b60008072184f03e93ff9f4daa797ed6e38ed64bf6a1f0160401b8310611f975772184f03e93ff9f4daa797ed6e38ed64bf6a1f0160401b830492506040015b6d04ee2d6d415b85acef81000000008310611fc3576d04ee2d6d415b85acef8100000000830492506020015b662386f26fc100008310611fe157662386f26fc10000830492506010015b6305f5e1008310611ff9576305f5e100830492506008015b612710831061200d57612710830492506004015b6064831061201f576064830492506002015b600a83106103e65760010192915050565b6001600160e01b03198116811461133a57600080fd5b60006020828403121561205857600080fd5b8135611d1081612030565b60005b8381101561207e578181015183820152602001612066565b50506000910152565b6000815180845261209f816020860160208601612063565b601f01601f19169290920160200192915050565b602081526000611d106020830184612087565b6000602082840312156120d857600080fd5b5035919050565b6020808252825182820181905260009190848201906040850190845b81811015612117578351835292840192918401916001016120fb565b50909695505050505050565b80356001600160a01b038116811461213a57600080fd5b919050565b6000806040838503121561215257600080fd5b61215b83612123565b946020939093013593505050565b60008060006060848603121561217e57600080fd5b61218784612123565b925061219560208501612123565b9150604084013590509250925092565b6020815281516020820152600060208301516121cc60408401826001600160a01b03169052565b5060408301516101008060608501526121e9610120850183612087565b91506060850151601f19808685030160808701526122078483612087565b935060808701519150808685030160a0870152506122258382612087565b92505060a085015160c085015260c085015161224560e086018215159052565b5060e0850151801515858301525090949350505050565b8881526001600160a01b0388166020820152610100604082018190526000906122878382018a612087565b9050828103606084015261229b8189612087565b905082810360808401526122af8188612087565b60a0840196909652505091151560c0830152151560e09091015295945050505050565b6000602082840312156122e457600080fd5b611d1082612123565b8035801515811461213a57600080fd5b6000806040838503121561231057600080fd5b61231983612123565b9150612327602084016122ed565b90509250929050565b634e487b7160e01b600052604160045260246000fd5b600067ffffffffffffffff8084111561236157612361612330565b604051601f8501601f19908116603f0116810190828211818310171561238957612389612330565b816040528093508581528686860111156123a257600080fd5b858560208301376000602087830101525050509392505050565b600080600080608085870312156123d257600080fd5b6123db85612123565b93506123e960208601612123565b925060408501359150606085013567ffffffffffffffff81111561240c57600080fd5b8501601f8101871361241d57600080fd5b61242c87823560208401612346565b91505092959194509250565b600082601f83011261244957600080fd5b611d1083833560208501612346565b60006020828403121561246a57600080fd5b813567ffffffffffffffff81111561248157600080fd5b61151984828501612438565b60008060008060008060c087890312156124a657600080fd5b6124af87612123565b9550602087013567ffffffffffffffff808211156124cc57600080fd5b6124d88a838b01612438565b965060408901359150808211156124ee57600080fd5b6124fa8a838b01612438565b9550606089013591508082111561251057600080fd5b5061251d89828a01612438565b93505061252c608088016122ed565b915061253a60a088016122ed565b90509295509295509295565b6000806040838503121561255957600080fd5b61256283612123565b915061232760208401612123565b600181811c9082168061258457607f821691505b6020821081036125a457634e487b7160e01b600052602260045260246000fd5b50919050565b6020808252602d908201527f4552433732313a2063616c6c6572206973206e6f7420746f6b656e206f776e6560408201526c1c881bdc88185c1c1c9bdd9959609a1b606082015260800190565b634e487b7160e01b600052603260045260246000fd5b634e487b7160e01b600052601160045260246000fd5b818103818111156103e6576103e661260d565b634e487b7160e01b600052603160045260246000fd5b60006001820161265e5761265e61260d565b5060010190565b60008251612677818460208701612063565b9190910192915050565b601f8211156105c257600081815260208120601f850160051c810160208610156126a85750805b601f850160051c820191505b818110156126c7578281556001016126b4565b505050505050565b815167ffffffffffffffff8111156126e9576126e9612330565b6126fd816126f78454612570565b84612681565b602080601f831160018114612732576000841561271a5750858301515b600019600386901b1c1916600185901b1785556126c7565b600085815260208120601f198616915b8281101561276157888601518255948401946001909101908401612742565b508582101561277f5787850151600019600388901b60f8161c191681555b5050505050600190811b01905550565b60a0815260006127a260a0830188612087565b82810360208401526127b48188612087565b905082810360408401526127c88187612087565b941515606084015250509015156080909101529392505050565b60208082526025908201527f4552433732313a207472616e736665722066726f6d20696e636f72726563742060408201526437bbb732b960d91b606082015260800190565b60208082526032908201527f4552433732313a207472616e7366657220746f206e6f6e20455243373231526560408201527131b2b4bb32b91034b6b83632b6b2b73a32b960711b606082015260800190565b6000835161288b818460208801612063565b83519083019061289f818360208801612063565b01949350505050565b6001600160a01b03858116825284166020820152604081018390526080606082018190526000906128db90830184612087565b9695505050505050565b6000602082840312156128f757600080fd5b8151611d108161203056fea2646970667358221220081690adde6f6a191c7d3baa12122e348db4a0f5e398ba797e1328f49a6a18f364736f6c63430008130033",
  "linkReferences": {},
  "deployedLinkReferences": {}
}